:100000000C9445000C9462000C9462000C94620005
:100010000C9462000C9462000C9462000C946200D8
:100020000C9462000C9462000C9462000C940C0519
:100030000C9462000C9462000C9462000C946200B8
:100040000C9462000C9462000C9478040C94D2041A
:100050000C9462000C9462000C9462000C94620098
:100060000C9462000C946200454647656667002068
:100070002B2D2E3031323334353637383968006322
:1000800064696E6F70737578580011241FBECFEFCE
:10009000D8E0DEBFCDBF11E0A0E0B1E0EEE1F3E1DA
:1000A00002C005900D92A833B107D9F722E0A8E36A
:1000B000B1E001C01D92AD34B207E1F70E945605D0
:1000C0000C948D090C940000CF93DF93A3E2B1E070
:1000D0001296ED91FC911397C8E3D1E07597F987DB
:1000E000E88716969C91169717968C911797928B86
:1000F000E885F985818B18969C91189719968C91B3
:10010000908B878789EC91E0938B848B80E491E0DE
:100110009B838A839983888368E471E00E949A01B3
:100120007894DF91CF910895F894FFCFFC01748308
:10013000638312821682158220913A0130913B012D
:100140008217930720F490933B0180933A0108951E
:100150008091450190914601892BF1F12091450153
:100160003091460180913C0190913D01820F931F97
:1001700020913E0130913F01821B930B90934601E9
:10018000809345018091450190914601892BD9F4D6
:1001900080914201833041F4E0914301F0914401A8
:1001A00080818F5F808308C0823031F4E091430109
:1001B000F0914401118210826FEF7FEF80E491E0B3
:1001C0000E94960009C080914501909146012091BE
:1001D00045013091460102C020E030E080913E01AF
:1001E00090913F0190933D0180933C012115310591
:1001F00041F0820F931F90933F0180933E010C9436
:100200005E040C945B046091380170913901809117
:100210003A0190913B016817790731F090933901C9
:10022000809338010C949A0108950F931F93CF93F4
:10023000DF930091380110913901F8018283611533
:10024000710599F16230710510F462E070E08091FF
:10025000840090918500EB01C80FD91F20913C01CB
:1002600030913D0180913E0190913F01281739075F
:1002700021F4CE010E9452040BC0AE01421B530B6D
:10028000821B930B4817590738F4CE010E945E0475
:10029000D0933F01C0933E0180913C0190913D017C
:1002A000C81BD90BF801D683C58322E431E0C9010C
:1002B0000297285F3F4FF901389740814111F7CFEE
:1002C00090933B0180933A019093390180933801D8
:1002D000B8010E949A01E0913801F09139018381BF
:1002E0009481DF91CF911F910F910895F894BC01F3
:1002F00081E00E94150178940895FC0190811916FF
:100300008CF06F3F8FEF780791F091509083A09120
:100310003801B09139011496FC93EE93139783E062
:100320000C9415019150908380E090E008958FEF38
:100330009FEF08952F923F924F925F926F927F921C
:100340008F929F92AF92BF92CF92DF92EF92FF92E5
:100350000F931F93CF93DF93FB010DB600820EB670
:100360000182FC0100800DBE01800EBEDF91CF91A5
:100370001F910F91FF90EF90DF90CF90BF90AF90C3
:100380009F908F907F906F905F904F903F902F90B5
:1003900008957894C201F101099580E090E00C94F1
:1003A0009400FC01808187FF12C0A3E4B1E09D01AD
:1003B000235031098D919C9111971896E817F907F0
:1003C000B1F790819F5F9083C9010C9496000895C6
:1003D0000E94630480E191E00E9464040E94DC03B7
:1003E0000E9449050C9450040F931F93FC01108246
:1003F0001282118274836383728761877087678337
:10040000640F751F76836583348723871687058776
:100410001F910F910895FC01A781B0858185928578
:10042000A817B90739F481819281892B19F08CEFD3
:100430009FEF089581819281019692838183CD01FE
:100440000196908787836C9327813085858196817B
:100450002817390720F0838194819087878360E093
:1004600070E0CF010E94D10180E090E008950F93E9
:100470001F93CF93DF93EC018B01F894EB85FC8500
:10048000309709F0099589819A81892B41F4B80147
:10049000CE010E947D0197FFF6CF789418C0898124
:1004A0009A8101979A838983E985FA859F012F5F55
:1004B0003F4F3A87298780814D815E812417350718
:1004C00020F02B813C813A872987789490E0DF9156
:1004D000CF911F910F9108958F929F92AF92BF92EB
:1004E000CF92DF92EF92FF920F931F93CF93DF9300
:1004F000EC015A014901CB84DC84F8947B0100E0D3
:1005000010E0C114D10419F0CE01F60109958981DA
:100510009A81892B41F4B401CE010E947D01892B7F
:10052000B1F3789422C089819A8101979A83898353
:10053000E985FA85CF0101969A8789878081F7013D
:1005400081937F0129853A858D819E8128173907FE
:1005500020F08B819C819A87898778940F5F1F4F49
:10056000A016B10611F0F894CCCFC801DF91CF915D
:100570001F910F91FF90EF90DF90CF90BF90AF90C1
:100580009F908F9008950F931F93FC0110825283C8
:100590004183748363837287618770876783460FA3
:1005A000571F5683458334872387168705871F91F6
:1005B0000F910895EF92FF921F93CF93DF93EC0179
:1005C000162F7A01F89489819A81892B41F4B70119
:1005D000CE010E947D0197FFF6CF789420C08981DB
:1005E0009A8101979A838983EF81F885CF010196DB
:1005F00098878F8310832F8138858D819E8128175E
:10060000390720F08B819C8198878F83EB85FC854F
:10061000309711F0CE010995789480E090E0DF9159
:10062000CF911F91FF90EF900895CF93FC01A1858A
:10063000B285878190858A179B0739F481819281E1
:10064000892B19F08DEF9FEF1AC08181928101965D
:1006500092838183CD01019692878187CC912581F8
:1006600036818217930720F0838194819287818756
:1006700060E070E0CF010E94D1018C2F90E0CF911B
:1006800008956F927F928F929F92AF92BF92CF9276
:10069000DF92EF92FF920F931F93CF93DF93EC01C2
:1006A0007B016A014901AB84BC84F89400E010E04E
:1006B00089819A81892B41F4B401CE010E947D0188
:1006C000892BB1F378942DC089819A8101979A83FF
:1006D0008983EF81F885CF01019698878F83370151
:1006E0008FEF681A780AD7018C9180832F81388523
:1006F0008D819E812817390720F08B819C819887F6
:100700008F83A114B10419F0CE01F50109957894F5
:100710000F5F1F4FF1E0CF1AD10819F0F894730161
:10072000C7CFC801DF91CF911F910F91FF90EF903C
:10073000DF90CF90BF90AF909F908F907F906F9001
:1007400008950F931F93DC010D911D912D913C9104
:10075000402B512B622B732BFC014083518362830E
:1007600073830480F581E02D309719F01F910F916C
:1007700009941F910F9108950B960C946C0220E040
:1007800030E00B960C946C024A960C94410320E0E6
:1007900030E04A960C9441030B960C94370260E0CB
:1007A00070E00B960C9437024A960C94DA0240E003
:1007B00050E04A960C94DA020C940405EF92FF92F2
:1007C0000F931F93CF93DF93EC019B017A0180E09D
:1007D00091E0998388831A821B821C821D821F826A
:1007E0001E821986188681E08A87BE01675D7F4F69
:1007F0008E0140E150E0CE010B960E94F401BE0153
:10080000675C7F4F970140E150E0CE014A960E941D
:10081000C302DF91CF911F910F91FF90EF90089548
:100820001F93CF93DF93EC01162F8C859D85892B29
:1008300041F444E050E060E070E0CE0102960E9496
:10084000A103612FCE010B960E940B0297FF0BC0F4
:1008500040E850E060E070E0CE010296DF91CF9179
:100860001F910C94A103DF91CF911F9108950F93D5
:100870001F93CF93DF938C014A960E941503EC01DE
:1008800097FF08C048E050E060E070E0C8010296C1
:100890000E94A103CE01DF91CF911F910F91089586
:1008A0000C943205909389008093880082E086BB87
:1008B00080936F00089510926F00089590938900BF
:1008C0008093880008950895FC01808185B9818115
:1008D00084B9828188B9838187B984818BB9858104
:1008E0008AB90895E1ECF0E0808180628083089508
:1008F0001F920F920FB60F9211242F933F934F9395
:100900005F936F937F938F939F93AF93BF93EF9377
:10091000FF932091C000822F8C7159F123FF05C0F5
:1009200080E890E0A0E0B0E003C080E090E0DC016F
:1009300022FD806224FD8064409152015091530158
:100940006091540170915501842B952BA62BB72BE8
:100950008093520190935301A0935401B093550199
:10096000E0915601F0915701309719F082E591E03E
:1009700009956091C60080E591E00E9410040E94F4
:100980000301FF91EF91BF91AF919F918F917F9163
:100990006F915F914F913F912F910F900FBE0F90EC
:1009A0001F9018951F920F920FB60F9211242F933C
:1009B0003F934F935F936F937F938F939F93AF93E7
:1009C000BF93EF93FF9380E591E00E94370497FF78
:1009D00006C08091C1008F7D8093C10002C08093CA
:1009E000C6000E940301FF91EF91BF91AF919F91CB
:1009F0008F917F916F915F914F913F912F910F90C8
:100A00000FBE0F901F90189542E754E060E070E031
:100A100080E591E00C94DE031F920F920FB60F92C7
:100A200011242F933F934F935F936F937F938F93F3
:100A30009F93AF93BF93EF93FF930E94A8000E94F0
:100A40000301FF91EF91BF91AF919F918F917F91A2
:100A50006F915F914F913F912F910F900FBE0F902B
:100A60001F90189510928000E1E8F0E088E0808304
:100A700010928200109289001092880010928500D6
:100A80001092840082E086BB10926F0085E0808324
:100A90000895109269001DBA0895C0E285B18C27AF
:100AA00085B984E89EE10E947601F8CF0E94E801B2
:100AB0000E946400FFCFABE0B0E0E1E6F5E00C940B
:100AC0005E086C017B013A01FC011782168283816A
:100AD00081FF03C1CE0101964C01F601B380F701FD
:100AE000B3FC0591B3FE01917F01002309F4F1C02D
:100AF000053249F4B3FC0591B3FE01917F01053243
:100B000011F010E019C0B601802F90E00E94E308B8
:100B100053013501E2CF002309F4DBC0602F70E000
:100B20008FE690E00E949A08892B49F0F701B3FC08
:100B30000591B3FE01917F0117FFEDCF04C0033291
:100B400039F00C3619F0011105C0C3C01068EECFA2
:100B500010E1ECCF602F70E088E690E00E949A08E8
:100B6000892B41F05301F4E0AF0EB11CB6018FE3C5
:100B700090E010C0033631F0033779F0033511F5FA
:100B800011600BC0530182E0A80EB11CB601F30145
:100B9000808191810E94E308BCCF5301F2E0AF0E47
:100BA000B11CF30160807180F30110FD859110FF8D
:100BB00081913F01882309F4ACCFB60190E00E94F7
:100BC000E308F2CF043611F0093621F5530117FF7F
:100BD00009C0F4E0AF0EB11CF30160817181828124
:100BE00093810AC0F2E0AF0EB11CF3016081718104
:100BF000072E000C880B990B1F7E97FF08C090955D
:100C00008095709561957F4F8F4F9F4F10642AE0BC
:100C100030E030C0003791F040F40835A1F00F36D5
:100C200009F057C028E030E011C0053719F0083747
:100C300031F04FC01F7E2AE030E008C0106114621E
:100C400020E130E003C0146020E132E0530117FFDF
:100C500009C0F4E0AF0EB11CF301608171818281A3
:100C6000938108C0F2E0AF0EB11CF3016081718185
:100C700080E090E0A4010E942C09082F081916FFBB
:100C800005C0B6018DE290E00E94E30814FF15C094
:100C9000FE01E00FF11D8081803379F0B60180E321
:100CA00090E00E94E30812FF08C01072812F90E0CC
:100CB000B601885A9F4F0E94E3080150F401E00FEB
:100CC000F11D8081B60190E00E94E3080111F5CF8B
:100CD00020CFF6018681978102C08FEF9FEF2B9680
:100CE000EEE00C947A0820FD09C0FC0123FD05C04C
:100CF00022FF02C07383628351834083089544FDC1
:100D000017C046FD17C0AB01BC01DA01FB01AA0FF9
:100D1000BB1FEE1FFF1F1094D1F74A0F5B1F6E1F02
:100D20007F1FCB01BA01660F771F881F991F09C06B
:100D300033E001C034E0660F771F881F991F3150E0
:100D4000D1F7620F711D811D911D08950F931F939F
:100D5000CF93DF938C01C8010E94A508EC0197FD99
:100D600008C00E949108892BB1F7B801CE010E94FA
:100D70001309CE01DF91CF911F910F910895A1E04A
:100D8000B0E0E5ECF6E00C9460088C01C62E7A0128
:100D900029830E94A508AC01552729814B325105B2
:100DA00021F04D32510569F42068CA94C11002C087
:100DB00080E078C0C80129830E94A508298197FD99
:100DC000F7CF322F3D7FD32E322F307359F580333A
:100DD00049F5BB24BA94BC0C09F450C0C80129835E
:100DE0000E94A508298197FD49C0AC014F7D552778
:100DF0004835510569F48D2D8264D82ECA94CA9461
:100E0000CC20E1F1C8010E94A50897FF0BC036C0B5
:100E100026FF04C02D2D2260D22E03C03D2D32614D
:100E2000D32ECB2C812C912C540120ED280F28306F
:100E300080F0D4FE04C0B8010E9413091CC02A30FF
:100E400040F0D6FEF8CF2F7D3FEE320F363098F7C8
:100E500027504D2DC501B4010E947F064B015C0156
:100E60008D2D8260D82ECA94CC2059F0C8010E94E2
:100E7000A50897FFDACFD1FC04C09ACF812C912C22
:100E80005401D7FE08C0B094A09490948094811C23
:100E9000911CA11CB11C2D2DB501A401C7010E94FC
:100EA000730681E02196ECE00C947C08A0E0B0E0B1
:100EB000ECE5F7E00C945E085C01EB014A01FC01F3
:100EC00017821682E12CF501D380FE01D3FC8591B7
:100ED000D3FE8191182FEF01882309F4E1C090E03F
:100EE0000E949108892B21F0C5010E94A606EBCF34
:100EF000153241F4FE01D3FC1591D3FE1191EF019F
:100F0000153281F4C5010E94A50897FDC7C0412F85
:100F100050E09C01332724173507A9F2B5010E9440
:100F20001309BEC01A3239F4D3FC1591D3FE1191C6
:100F3000EF0101E001C000E0F12C20ED210F2A308B
:100F400080F402606F2D70E080E090E040E20E944B
:100F50007F06F62EFE01D3FC1591D3FE1191EF0111
:100F6000ECCF01FF03C0F11003C09AC0FF24FA9434
:100F7000183619F01C3651F010C0FE01D3FC159143
:100F8000D3FE1191EF01183641F408600460FE01B0
:100F9000D3FC1591D3FE1191EF01112309F480C008
:100FA000612F70E08FE790E00E949A08892B09F486
:100FB00077C000FD07C0F401C080D180C401029653
:100FC0004C0102C0C12CD12C1E3651F4F5014681D2
:100FD000578160E070E0202FC6010E94730673CF36
:100FE0001336A9F401FD02C0FF24F394C5010E9449
:100FF000A50897FD53C0C114D10429F0F6018083E0
:10100000C60101966C01FA94F110F0CF43C0C501FE
:101010000E94A60697FD42C01F3661F128F41436DF
:1010200039F1193651F128C0133771F0153701F134
:1010300023C0C114D10429F0F6016082C6010196D3
:101040006C01FA94FF2071F0C5010E94A5083C01D3
:1010500097FD08C00E949108892B59F3B501C3017F
:101060000E941309C114D104A9F0F601108212C024
:10107000006203C0006101C00064202FA6016F2D33
:10108000C5010E94BF06811105C0F50183818073EF
:1010900029F406C000FD17CFE39415CFEE2019F018
:1010A0008E2D90E002C08FEF9FEFCDB7DEB7EEE060
:1010B0000C947A082F923F924F925F926F927F9298
:1010C0008F929F92AF92BF92CF92DF92EF92FF9258
:1010D0000F931F93CF93DF93CDB7DEB7CA1BDB0B04
:1010E0000FB6F894DEBF0FBECDBF09942A883988A9
:1010F00048885F846E847D848C849B84AA84B984B0
:10110000C884DF80EE80FD800C811B81AA81B981BB
:10111000CE0FD11D0FB6F894DEBF0FBECDBFED01CF
:10112000089591110C948A09803219F089508550E4
:10113000C8F70895FC010590061621F00020D9F7A4
:10114000C00108953197CF010895CF93DF93EC014B
:101150002B8120FF33C026FF0AC02F7B2B838E817B
:101160009F8101969F838E838A8190E029C022FF10
:101170000FC0E881F9818081082E000C990B00973F
:1011800019F420622B831AC03196F983E8830EC0CC
:10119000EA85FB85099597FF09C02B81019611F01F
:1011A00080E201C080E1822B8B8308C02E813F81C9
:1011B0002F5F3F4F3F832E83992702C08FEF9FEF12
:1011C000DF91CF9108950F931F93CF93DF93182F43
:1011D000092FEB018B8181FD03C08FEF9FEF1EC0B4
:1011E00082FF0FC02E813F818C819D812817390796
:1011F00074F4E881F981CF01019699838883108383
:1012000006C0E885F985812F0995892B31F78E81F4
:101210009F8101969F838E83812F902FDF91CF91A5
:101220001F910F910895FB01238120FF12C026FD1D
:1012300010C08F3F3FEF930761F082832F7D2064C2
:1012400023832681378121503109378326839927CB
:1012500008958FEF9FEF0895FA01AA27283051F1E2
:10126000203181F1E8946F936E7F6E5F7F4F8F4FD7
:101270009F4FAF4FB1E03ED0B4E03CD0670F781F36
:10128000891F9A1FA11D680F791F8A1F911DA11D1B
:101290006A0F711D811D911DA11D20D009F4689454
:1012A0003F912AE0269F11243019305D3193DEF6FC
:1012B000CF010895462F4770405D4193B3E00FD0B2
:1012C000C9F7F6CF462F4F70405D4A3318F0495D9D
:1012D00031FD4052419302D0A9F7EACFB4E0A69580
:1012E0009795879577956795BA95C9F700976105A2
:1012F000710508959B01AC010A2E069457954795F8
:1013000037952795BA95C9F7620F731F841F951FEC
:0E131000A01D0895992788270895F894FFCF0F
:10131E00C703BF03D703CF03D403CC03C403BC035B
:10132E00EF10FF00FF02626C696E6B6572006964FC
:10133E006C650099014D0216014D0500000000007C
:08134E00001E01000000000078
:00000001FF
